{
  "_format": "hh-sol-artifact-1",
  "contractName": "RentalAgreement",
  "sourceName": "contracts/RentalAgreementContract.sol",
  "abi": [
    {
      "inputs": [
        {
          "internalType": "address",
          "name": "tokenAddress",
          "type": "address"
        }
      ],
      "stateMutability": "nonpayable",
      "type": "constructor"
    },
    {
      "anonymous": false,
      "inputs": [
        {
          "indexed": false,
          "internalType": "uint256",
          "name": "itemId",
          "type": "uint256"
        },
        {
          "indexed": false,
          "internalType": "address",
          "name": "renter",
          "type": "address"
        },
        {
          "indexed": false,
          "internalType": "uint256",
          "name": "amount",
          "type": "uint256"
        }
      ],
      "name": "DepositReleased",
      "type": "event"
    },
    {
      "anonymous": false,
      "inputs": [
        {
          "indexed": false,
          "internalType": "uint256",
          "name": "itemId",
          "type": "uint256"
        },
        {
          "indexed": false,
          "internalType": "string",
          "name": "description",
          "type": "string"
        },
        {
          "indexed": false,
          "internalType": "uint256",
          "name": "rentalFee",
          "type": "uint256"
        },
        {
          "indexed": false,
          "internalType": "uint256",
          "name": "securityDeposit",
          "type": "uint256"
        }
      ],
      "name": "ItemAdded",
      "type": "event"
    },
    {
      "anonymous": false,
      "inputs": [
        {
          "indexed": false,
          "internalType": "uint256",
          "name": "itemId",
          "type": "uint256"
        },
        {
          "indexed": false,
          "internalType": "address",
          "name": "renter",
          "type": "address"
        }
      ],
      "name": "ItemRented",
      "type": "event"
    },
    {
      "anonymous": false,
      "inputs": [
        {
          "indexed": false,
          "internalType": "uint256",
          "name": "itemId",
          "type": "uint256"
        },
        {
          "indexed": false,
          "internalType": "address",
          "name": "renter",
          "type": "address"
        }
      ],
      "name": "ItemReturned",
      "type": "event"
    },
    {
      "inputs": [],
      "name": "MPXToken",
      "outputs": [
        {
          "internalType": "contract IERC20",
          "name": "",
          "type": "address"
        }
      ],
      "stateMutability": "view",
      "type": "function"
    },
    {
      "inputs": [
        {
          "internalType": "uint256",
          "name": "_itemId",
          "type": "uint256"
        },
        {
          "internalType": "string",
          "name": "_description",
          "type": "string"
        },
        {
          "internalType": "uint256",
          "name": "_rentalFee",
          "type": "uint256"
        },
        {
          "internalType": "uint256",
          "name": "_securityDeposit",
          "type": "uint256"
        }
      ],
      "name": "addItem",
      "outputs": [],
      "stateMutability": "nonpayable",
      "type": "function"
    },
    {
      "inputs": [
        {
          "internalType": "address",
          "name": "",
          "type": "address"
        }
      ],
      "name": "deposits",
      "outputs": [
        {
          "internalType": "uint256",
          "name": "",
          "type": "uint256"
        }
      ],
      "stateMutability": "view",
      "type": "function"
    },
    {
      "inputs": [
        {
          "internalType": "uint256",
          "name": "",
          "type": "uint256"
        }
      ],
      "name": "items",
      "outputs": [
        {
          "internalType": "uint256",
          "name": "itemId",
          "type": "uint256"
        },
        {
          "internalType": "string",
          "name": "description",
          "type": "string"
        },
        {
          "internalType": "uint256",
          "name": "rentalFee",
          "type": "uint256"
        },
        {
          "internalType": "uint256",
          "name": "securityDeposit",
          "type": "uint256"
        },
        {
          "internalType": "bool",
          "name": "available",
          "type": "bool"
        }
      ],
      "stateMutability": "view",
      "type": "function"
    },
    {
      "inputs": [
        {
          "internalType": "uint256",
          "name": "itemId",
          "type": "uint256"
        },
        {
          "internalType": "address",
          "name": "renter",
          "type": "address"
        }
      ],
      "name": "releaseDeposit",
      "outputs": [],
      "stateMutability": "nonpayable",
      "type": "function"
    },
    {
      "inputs": [
        {
          "internalType": "uint256",
          "name": "itemId",
          "type": "uint256"
        }
      ],
      "name": "rentItem",
      "outputs": [],
      "stateMutability": "nonpayable",
      "type": "function"
    },
    {
      "inputs": [
        {
          "internalType": "uint256",
          "name": "itemId",
          "type": "uint256"
        }
      ],
      "name": "returnItem",
      "outputs": [],
      "stateMutability": "nonpayable",
      "type": "function"
    },
    {
      "inputs": [
        {
          "internalType": "uint256",
          "name": "itemId",
          "type": "uint256"
        },
        {
          "internalType": "bool",
          "name": "availability",
          "type": "bool"
        }
      ],
      "name": "setAvailability",
      "outputs": [],
      "stateMutability": "nonpayable",
      "type": "function"
    }
  ],
  "bytecode": "0x608060405234801561001057600080fd5b50604051611c51380380611c518339818101604052810190610032919061011c565b806000806101000a81548173ffffffffffffffffffffffffffffffffffffffff021916908373ffffffffffffffffffffffffffffffffffffffff16021790555033600160006101000a81548173ffffffffffffffffffffffffffffffffffffffff021916908373ffffffffffffffffffffffffffffffffffffffff16021790555050610149565b600080fd5b600073ffffffffffffffffffffffffffffffffffffffff82169050919050565b60006100e9826100be565b9050919050565b6100f9816100de565b811461010457600080fd5b50565b600081519050610116816100f0565b92915050565b600060208284031215610132576101316100b9565b5b600061014084828501610107565b91505092915050565b611af9806101586000396000f3fe608060405234801561001057600080fd5b50600436106100885760003560e01c8063d78d38521161005b578063d78d385214610117578063d8708ced14610133578063ec67b45d1461014f578063fc7e286d1461016b57610088565b8063223ed1dd1461008d57806362f4d4a7146100a9578063a865bf80146100c7578063bfb231d2146100e3575b600080fd5b6100a760048036038101906100a29190610dd7565b61019b565b005b6100b1610292565b6040516100be9190610e83565b60405180910390f35b6100e160048036038101906100dc9190610ed6565b6102b6565b005b6100fd60048036038101906100f89190610dd7565b6103e9565b60405161010e959493929190610fc4565b60405180910390f35b610131600480360381019061012c9190610dd7565b6104b4565b005b61014d6004803603810190610148919061105c565b61083d565b005b610169600480360381019061016491906111d1565b610b54565b005b61018560048036038101906101809190611254565b610d44565b6040516101929190611281565b60405180910390f35b60006002600083815260200190815260200160002090508060030154600360003373ffffffffffffffffffffffffffffffffffffffff1673ffffffffffffffffffffffffffffffffffffffff168152602001908152602001600020541015610238576040517f08c379a000000000000000000000000000000000000000000000000000000000815260040161022f906112e8565b60405180910390fd5b60018160040160006101000a81548160ff0219169083151502179055507fc3193e818cdb299f699a8ae99c460279d0de3b72ce9331e279a52515bb5aca9f8233604051610286929190611317565b60405180910390a15050565b60008054906101000a900473ffffffffffffffffffffffffffffffffffffffff1681565b81600073ffffffffffffffffffffffffffffffffffffffff163373ffffffffffffffffffffffffffffffffffffffff1603610326576040517f08c379a000000000000000000000000000000000000000000000000000000000815260040161031d9061138c565b60405180910390fd5b3373ffffffffffffffffffffffffffffffffffffffff16600160009054906101000a900473ffffffffffffffffffffffffffffffffffffffff1673ffffffffffffffffffffffffffffffffffffffff16146103b6576040517f08c379a00000000000000000000000000000000000000000000000000000000081526004016103ad906113f8565b60405180910390fd5b816002600085815260200190815260200160002060040160006101000a81548160ff021916908315150217905550505050565b600260205280600052604060002060009150905080600001549080600101805461041290611447565b80601f016020809104026020016040519081016040528092919081815260200182805461043e90611447565b801561048b5780601f106104605761010080835404028352916020019161048b565b820191906000526020600020905b81548152906001019060200180831161046e57829003601f168201915b5050505050908060020154908060030154908060040160009054906101000a900460ff16905085565b80600073ffffffffffffffffffffffffffffffffffffffff163373ffffffffffffffffffffffffffffffffffffffff1603610524576040517f08c379a000000000000000000000000000000000000000000000000000000000815260040161051b9061138c565b60405180910390fd5b6002600082815260200190815260200160002060040160009054906101000a900460ff16610587576040517f08c379a000000000000000000000000000000000000000000000000000000000815260040161057e906114c4565b60405180910390fd5b60006002600084815260200190815260200160002090506000816003015482600201546105b49190611513565b905060008060009054906101000a900473ffffffffffffffffffffffffffffffffffffffff1673ffffffffffffffffffffffffffffffffffffffff1663dd62ed3e33306040518363ffffffff1660e01b8152600401610614929190611547565b602060405180830381865afa158015610631573d6000803e3d6000fd5b505050506040513d601f19601f820116820180604052508101906106559190611585565b90508181101561069a576040517f08c379a0000000000000000000000000000000000000000000000000000000008152600401610691906115fe565b60405180910390fd5b600033905060008060009054906101000a900473ffffffffffffffffffffffffffffffffffffffff1673ffffffffffffffffffffffffffffffffffffffff166323b872dd8330876040518463ffffffff1660e01b81526004016106ff9392919061161e565b6020604051808303816000875af115801561071e573d6000803e3d6000fd5b505050506040513d601f19601f82011682018060405250810190610742919061166a565b905080610784576040517f08c379a000000000000000000000000000000000000000000000000000000000815260040161077b906116e3565b60405180910390fd5b8460030154600360003373ffffffffffffffffffffffffffffffffffffffff1673ffffffffffffffffffffffffffffffffffffffff16815260200190815260200160002060008282546107d79190611513565b9250508190555060008560040160006101000a81548160ff0219169083151502179055507f60a8ad5021d41afc35cad1dcad49a375a37f3d9c05c95bdf82d653ae99869a0c878360405161082c929190611317565b60405180910390a150505050505050565b81600073ffffffffffffffffffffffffffffffffffffffff163373ffffffffffffffffffffffffffffffffffffffff16036108ad576040517f08c379a00000000000000000000000000000000000000000000000000000000081526004016108a49061138c565b60405180910390fd5b3373ffffffffffffffffffffffffffffffffffffffff16600160009054906101000a900473ffffffffffffffffffffffffffffffffffffffff1673ffffffffffffffffffffffffffffffffffffffff161461093d576040517f08c379a0000000000000000000000000000000000000000000000000000000008152600401610934906113f8565b60405180910390fd5b600060026000858152602001908152602001600020905060008160030154905080600360008673ffffffffffffffffffffffffffffffffffffffff1673ffffffffffffffffffffffffffffffffffffffff1681526020019081526020016000205410156109df576040517f08c379a00000000000000000000000000000000000000000000000000000000081526004016109d69061174f565b60405180910390fd5b80600360008673ffffffffffffffffffffffffffffffffffffffff1673ffffffffffffffffffffffffffffffffffffffff1681526020019081526020016000206000828254610a2e919061176f565b9250508190555060008054906101000a900473ffffffffffffffffffffffffffffffffffffffff1673ffffffffffffffffffffffffffffffffffffffff1663a9059cbb85836040518363ffffffff1660e01b8152600401610a909291906117a3565b6020604051808303816000875af1158015610aaf573d6000803e3d6000fd5b505050506040513d601f19601f82011682018060405250810190610ad3919061166a565b610b12576040517f08c379a0000000000000000000000000000000000000000000000000000000008152600401610b09906116e3565b60405180910390fd5b7f27fd7b405d3b1cef830760908e4041d6c33a3e8fee51f248c99462d0d5550885858583604051610b45939291906117cc565b60405180910390a15050505050565b83600073ffffffffffffffffffffffffffffffffffffffff163373ffffffffffffffffffffffffffffffffffffffff1603610bc4576040517f08c379a0000000000000000000000000000000000000000000000000000000008152600401610bbb9061138c565b60405180910390fd5b3373ffffffffffffffffffffffffffffffffffffffff16600160009054906101000a900473ffffffffffffffffffffffffffffffffffffffff1673ffffffffffffffffffffffffffffffffffffffff1614610c54576040517f08c379a0000000000000000000000000000000000000000000000000000000008152600401610c4b906113f8565b60405180910390fd5b610c5c610d5c565b85816000018181525050848160200181905250838160400181815250508281606001818152505060018160800190151590811515815250508060026000888152602001908152602001600020600082015181600001556020820151816001019081610cc791906119a5565b50604082015181600201556060820151816003015560808201518160040160006101000a81548160ff0219169083151502179055509050507f665e452eb624a7f9bf54abd5d404d4f4da7360a1e40698893fe2cc447a51af9c86868686604051610d349493929190611a77565b60405180910390a1505050505050565b60036020528060005260406000206000915090505481565b6040518060a00160405280600081526020016060815260200160008152602001600081526020016000151581525090565b6000604051905090565b600080fd5b600080fd5b6000819050919050565b610db481610da1565b8114610dbf57600080fd5b50565b600081359050610dd181610dab565b92915050565b600060208284031215610ded57610dec610d97565b5b6000610dfb84828501610dc2565b91505092915050565b600073ffffffffffffffffffffffffffffffffffffffff82169050919050565b6000819050919050565b6000610e49610e44610e3f84610e04565b610e24565b610e04565b9050919050565b6000610e5b82610e2e565b9050919050565b6000610e6d82610e50565b9050919050565b610e7d81610e62565b82525050565b6000602082019050610e986000830184610e74565b92915050565b60008115159050919050565b610eb381610e9e565b8114610ebe57600080fd5b50565b600081359050610ed081610eaa565b92915050565b60008060408385031215610eed57610eec610d97565b5b6000610efb85828601610dc2565b9250506020610f0c85828601610ec1565b9150509250929050565b610f1f81610da1565b82525050565b600081519050919050565b600082825260208201905092915050565b60005b83811015610f5f578082015181840152602081019050610f44565b60008484015250505050565b6000601f19601f8301169050919050565b6000610f8782610f25565b610f918185610f30565b9350610fa1818560208601610f41565b610faa81610f6b565b840191505092915050565b610fbe81610e9e565b82525050565b600060a082019050610fd96000830188610f16565b8181036020830152610feb8187610f7c565b9050610ffa6040830186610f16565b6110076060830185610f16565b6110146080830184610fb5565b9695505050505050565b600061102982610e04565b9050919050565b6110398161101e565b811461104457600080fd5b50565b60008135905061105681611030565b92915050565b6000806040838503121561107357611072610d97565b5b600061108185828601610dc2565b925050602061109285828601611047565b9150509250929050565b600080fd5b600080fd5b7f4e487b7100000000000000000000000000000000000000000000000000000000600052604160045260246000fd5b6110de82610f6b565b810181811067ffffffffffffffff821117156110fd576110fc6110a6565b5b80604052505050565b6000611110610d8d565b905061111c82826110d5565b919050565b600067ffffffffffffffff82111561113c5761113b6110a6565b5b61114582610f6b565b9050602081019050919050565b82818337600083830152505050565b600061117461116f84611121565b611106565b9050828152602081018484840111156111905761118f6110a1565b5b61119b848285611152565b509392505050565b600082601f8301126111b8576111b761109c565b5b81356111c8848260208601611161565b91505092915050565b600080600080608085870312156111eb576111ea610d97565b5b60006111f987828801610dc2565b945050602085013567ffffffffffffffff81111561121a57611219610d9c565b5b611226878288016111a3565b935050604061123787828801610dc2565b925050606061124887828801610dc2565b91505092959194509250565b60006020828403121561126a57611269610d97565b5b600061127884828501611047565b91505092915050565b60006020820190506112966000830184610f16565b92915050565b7f4e6f206465706f73697420666f756e6420666f722072656e7465720000000000600082015250565b60006112d2601b83610f30565b91506112dd8261129c565b602082019050919050565b60006020820190508181036000830152611301816112c5565b9050919050565b6113118161101e565b82525050565b600060408201905061132c6000830185610f16565b6113396020830184611308565b9392505050565b7f5a65726f206e6f7420616c6c6f77656400000000000000000000000000000000600082015250565b6000611376601083610f30565b915061138182611340565b602082019050919050565b600060208201905081810360008301526113a581611369565b9050919050565b7f4e6f7420746865206974656d206f776e65720000000000000000000000000000600082015250565b60006113e2601283610f30565b91506113ed826113ac565b602082019050919050565b60006020820190508181036000830152611411816113d5565b9050919050565b7f4e487b7100000000000000000000000000000000000000000000000000000000600052602260045260246000fd5b6000600282049050600182168061145f57607f821691505b60208210810361147257611471611418565b5b50919050565b7f4974656d206973206e6f7420617661696c61626c6520666f722072656e740000600082015250565b60006114ae601e83610f30565b91506114b982611478565b602082019050919050565b600060208201905081810360008301526114dd816114a1565b9050919050565b7f4e487b7100000000000000000000000000000000000000000000000000000000600052601160045260246000fd5b600061151e82610da1565b915061152983610da1565b9250828201905080821115611541576115406114e4565b5b92915050565b600060408201905061155c6000830185611308565b6115696020830184611308565b9392505050565b60008151905061157f81610dab565b92915050565b60006020828403121561159b5761159a610d97565b5b60006115a984828501611570565b91505092915050565b7f416d6f756e7420697320746f6f206c6f77000000000000000000000000000000600082015250565b60006115e8601183610f30565b91506115f3826115b2565b602082019050919050565b60006020820190508181036000830152611617816115db565b9050919050565b60006060820190506116336000830186611308565b6116406020830185611308565b61164d6040830184610f16565b949350505050565b60008151905061166481610eaa565b92915050565b6000602082840312156116805761167f610d97565b5b600061168e84828501611655565b91505092915050565b7f546f6b656e207472616e73666572206661696c65640000000000000000000000600082015250565b60006116cd601583610f30565b91506116d882611697565b602082019050919050565b600060208201905081810360008301526116fc816116c0565b9050919050565b7f496e73756666696369656e74206465706f73697420746f2072656c6561736500600082015250565b6000611739601f83610f30565b915061174482611703565b602082019050919050565b600060208201905081810360008301526117688161172c565b9050919050565b600061177a82610da1565b915061178583610da1565b925082820390508181111561179d5761179c6114e4565b5b92915050565b60006040820190506117b86000830185611308565b6117c56020830184610f16565b9392505050565b60006060820190506117e16000830186610f16565b6117ee6020830185611308565b6117fb6040830184610f16565b949350505050565b60008190508160005260206000209050919050565b60006020601f8301049050919050565b600082821b905092915050565b6000600883026118657fffffffffffffffffffffffffffffffffffffffffffffffffffffffffffffffff82611828565b61186f8683611828565b95508019841693508086168417925050509392505050565b60006118a261189d61189884610da1565b610e24565b610da1565b9050919050565b6000819050919050565b6118bc83611887565b6118d06118c8826118a9565b848454611835565b825550505050565b600090565b6118e56118d8565b6118f08184846118b3565b505050565b5b81811015611914576119096000826118dd565b6001810190506118f6565b5050565b601f8211156119595761192a81611803565b61193384611818565b81016020851015611942578190505b61195661194e85611818565b8301826118f5565b50505b505050565b600082821c905092915050565b600061197c6000198460080261195e565b1980831691505092915050565b6000611995838361196b565b9150826002028217905092915050565b6119ae82610f25565b67ffffffffffffffff8111156119c7576119c66110a6565b5b6119d18254611447565b6119dc828285611918565b600060209050601f831160018114611a0f57600084156119fd578287015190505b611a078582611989565b865550611a6f565b601f198416611a1d86611803565b60005b82811015611a4557848901518255600182019150602085019450602081019050611a20565b86831015611a625784890151611a5e601f89168261196b565b8355505b6001600288020188555050505b505050505050565b6000608082019050611a8c6000830187610f16565b8181036020830152611a9e8186610f7c565b9050611aad6040830185610f16565b611aba6060830184610f16565b9594505050505056fea2646970667358221220a1dcac2bac9a6c561bb6debd0992a2c188083d84a4faf24a1715b008c4de390964736f6c634300081b0033",
  "linkReferences": {},
  "deployedLinkReferences": {}
}